:020000040800F2
:10000000B04F0020690200087F2B0008412800083B
:100010007D2B0008D1060008874D00080000000075
:10002000000000000000000000000000D1010008F6
:10003000CB0700080000000015020008413300084B
:10004000830200088302000883020008830200087C
:10005000830200088302000883020008830200086C
:10006000830200088302000883020008830200085C
:100070008302000895070008830200088302000835
:10008000830200088302000883020008830200083C
:10009000B14C0008830200088302000883020008B4
:1000A000830200088302000883020008E533000889
:1000B000F933000883020008830200088302000865
:1000C00083020008830200088302000883020008FC
:1000D00083020008830200088302000883020008EC
:1000E00083020008830200088302000800F002F87F
:1000F00000F05EF80AA090E8000C82448344AAF164
:100100000107DA4501D100F053F8AFF2090EBAE861
:100110000F0013F0010F18BFFB1A43F0010318473B
:10012000145E0000345E00000A444FF0000C10F82A
:10013000013B13F0070408BF10F8014B1D1108BF65
:1001400010F8015B641E05D010F8016B641E01F805
:10015000016BF9D113F0080F1EBF10F8014BAD1C55
:100160000C1B09D16D1E58BF01F801CBFAD505E073
:1001700014F8016B01F8016B6D1EF9D59142D6D3CD
:10018000704700000023002400250026103A28BFF5
:1001900078C1FBD8520728BF30C148BF0B607047F9
:1001A0001FB59DE8030000F0B5F91FBD10B510BDE7
:1001B00000F00CFA1146FFF7F3FF04F0F5FD00F034
:1001C0002AFA03B4FFF7F2FF03BC00F05BFA000069
:1001D000224B19680868B0E8F00F80F30988BFF374
:1001E0006F8F4FF0000080F311884EF00D0E7047B6
:1001F0000000000006480068006880F3088862B6C6
:1002000061B6BFF34F8FBFF36F8F00DF00BF00BF3A
:1002100008ED00E0EFF30980BFF36F8F0F4B1A6812
:1002200020E9F00F106008B54FF0500080F31188FE
:10023000BFF34F8FBFF36F8F05F04EF94FF0000003
:1002400080F31188BDE8084019680868B0E8F00F2D
:1002500080F30988BFF36F8F704700BF2400002030
:10026000EFF30580704700000948804709480047C0
:10027000FEE7FEE7FEE7FEE7FEE7FEE7FEE7FEE756
:10028000FEE7FEE704480549054A064B70470000B3
:10029000E3330008ED000008B0430020B04F002019
:1002A000B0470020B047002070B5064600F016F9B0
:1002B000056806F10B0020F00704B4429CBF002043
:1002C00070BD2B466A68BAB11068A04210D304F121
:1002D000080188423CBF5068586007D35168101924
:1002E00041601168091B016058601460101D70BDE9
:1002F00013465268002AE7D12146284600F0F6F856
:100300000028DED170BD70B50446051F00F0E6F888
:100310000068002C14BF446870BD002C18BFAC42AC
:100320003CBF20466468F8D301680A18AA4218BF87
:10033000456003D12A6805461144016028684119C7
:10034000A1421CBF6C6070BD61686960216808448F
:10035000286070BD032A40F2308010F0030C00F0DA
:10036000158011F8013BBCF1020F624498BF11F8EF
:1003700001CB00F8013B38BF11F8013BA2F10402A8
:1003800098BF00F801CB38BF00F8013B11F0030320
:1003900000F02580083AC0F0088051F8043B083A84
:1003A00051F804CBA0E80810F5E7121D5CBF51F826
:1003B000043B40F8043BAFF30080D20724BF11F8A0
:1003C000013B11F801CB48BF11F8012B24BF00F805
:1003D000013B00F801CB48BF00F8012B704710B576
:1003E000203AC0F00B80B1E81850203AA0E818502D
:1003F000B1E81850A0E81850BFF4F5AF5FEA027CEE
:1004000024BFB1E81850A0E8185044BF18C918C05C
:10041000BDE810405FEA827C24BF51F8043B40F8FD
:10042000043B08BF7047D20728BF31F8023B48BFE2
:1004300011F8012B28BF20F8023B48BF00F8012B20
:1004400070474FF000020429C0F0128010F0030C36
:1004500000F01B80CCF1040CBCF1020F18BF00F8B7
:10046000012BA8BF20F8022BA1EB0C0100F00DB866
:100470005FEAC17C24BF00F8012B00F8012B48BFC4
:1004800000F8012B70474FF0000200B51346944668
:100490009646203922BFA0E80C50A0E80C50B1F1DC
:1004A0002001BFF4F7AF090728BFA0E80C5048BFF0
:1004B0000CC05DF804EB890028BF40F8042B08BF8E
:1004C000704748BF20F8022B11F0804F18BF00F88A
:1004D000012B704770477047704700000048704715
:1004E00054430020704770477047704738B5044642
:1004F0000A4600206946AFF30080002808BF38BDD7
:1005000002460099204600F03FF8012038BD012046
:1005100000F054B8F8B5AFF30080054600200C4653
:10052000102000BF0646A819A0420DD932466946E0
:100530000020AFF30080070008BF00F03FF80098EC
:10054000A04218BF0546C419FFF7C8FF056007465B
:10055000F01D20F007004619284600F00AF8B442C2
:1005600008BFF8BDA21B31463868BDE8F84000F06E
:100570000BB800210160C0E90110704710207047DE
:10058000004870474C430020034640688C460028D2
:1005900018BF88423CBF03464068F8D31868184427
:1005A000884207D00CF1030020F00700001D411A1B
:1005B000521A0146081D0A60FFF7A5BE10B500F0EB
:1005C00039F8BDE8104000F02FB870477546FFF7C6
:1005D000D7FFAE4605006946534620F00700854622
:1005E00018B020B5FFF74EFEBDE820404FF00006E2
:1005F0004FF000074FF000084FF0000B21F007010B
:10060000AC46ACE8C009ACE8C009ACE8C009ACE84D
:10061000C0098D46704710B50446AFF300802046F0
:10062000BDE81040FFF7CDBD002801D000F02AB88A
:100630007047000010B5012805D0002103A000F08C
:1006400027F8012010BD09A1F8E7000053494752DF
:10065000544D454D3A204F7574206F662068656192
:1006600070206D656D6F7279000000003A2048655A
:100670006170206D656D6F727920636F7272757035
:100680007465640001491820ABBEFEE72600020035
:1006900070B505460C460A2000E06D1C00F011F80C
:1006A00035B128780028F8D102E0641C00F009F880
:1006B00014B120780028F8D1BDE870400A20AFF3CB
:1006C000008008B569468DF800000320ABBE08BD68
:1006D000FEE70020704700207047000010B50022A0
:1006E0000449054803F0C2F80449034803F0B8F888
:1006F000002010BD6A2E0020E01200206A2A00208F
:100700002DE9F0410446086840F2426290422AD244
:1007100072B61D4B1878182812D200221B4E5D6845
:1007200006E000BF14F802C0AF18521C06F807C05C
:100730000F689742F6D87919401C5960187011E07B
:100740000020187058605D78012002214FF4C862C3
:10075000012D12D0587099700C4901F2426000BF0F
:10076000FFF7F8FD62B62146094803F079F808481A
:1007700003F05AF80020BDE8F081597003499870E1
:1007800001F68440ECE70000D4000020A41700200C
:10079000E0120020014800F045B80000D404002019
:1007A00030B590F840500124AC40C56B6C600468D3
:1007B00063604368102B036803D099600068C260CF
:1007C00030BD9A600068C16030BD70472DE9F047C8
:1007D00098461746824600260D46DDF820900EE02A
:1007E000544608E019F8062029462046761C00F0F9
:1007F0000BF8641CE4B2BC42F4D36D1CEDB2454569
:10080000EED3BDE8F0870000044B10B51C6A5B898D
:100810002044DB0801FB0300027010BD0002002031
:1008200072B6FEE72DE9F05FC16B0C6801680B68DA
:10083000D0F840C0042202FA0CF2494DDFF824A19E
:10084000494E4A4FDFF828B1DFF828E122422CD088
:100850005A072AD50A68920603D40A6822F00402CD
:100860000A600168A94201D1042219E0514501D171
:10087000402215E0B14202D14FF4806210E0B9424B
:1008800002D14FF480420BE0594502D14FF480224F
:1008900006E0714502D14FF4800201E04FF0806222
:1008A0002F4908394A60C16A3BE04FF0020808FA54
:1008B0000CF818EA040F4FF000094FF0010235D090
:1008C0005FEA837832D50B689B0605D40B6823F06A
:1008D0000A030B6080F821200168A94201D102229D
:1008E00019E0514501D1202215E0B14202D14FF467
:1008F000007210E0B94202D14FF400520BE05945AA
:1009000002D14FF4003206E0714502D14FF40012DB
:1009100001E04FF00072124908394A6080F82090D7
:10092000816A00291AD0BDE8F05F0847082505FA5A
:100930000CF5254212D01B0710D50B6823F00E03CF
:100940000B6090F84010C36B02FA01F159608263AA
:1009500080F8212080F82090016BE2E7BDE8F09F4D
:10096000080002401C0002403000024044000240E7
:10097000580002406C00024030B528B308C8134943
:1009800014221944B1FBF2F18900C163104981635B
:10099000022141771A6843F6F0718A43D0E90014C6
:1009A0002143D0E902452C43214304692143446992
:1009B00021438469214311431960002141630122CD
:1009C00042770177084630BD012030BDF8FFFDBFFA
:1009D0000000024070B5044690F820000025012870
:1009E0000CD0012084F8200094F821600020012E12
:1009F00006D084F820000225284670BD022070BD74
:100A0000022684F82160A0632068066826F00106AB
:100A100006602046FFF7C4FEE06A002820680168EF
:100A200002D041F00E0106E021F0040101602068CF
:100A3000016841F00A0101602068016841F001018C
:100A40000160D9E770B5044600F00CF90546601C5A
:100A500002D004480078044400F004F9401BA0428E
:100A6000FAD370BD140000202DE9F84FDFF8B891DB
:100A70000024A9F1040B23460F2709F1040AABF166
:100A8000040EC9E00125A5402A40AA427DD1674E47
:100A9000D1F804C0ACEB0608B44532D014DCBCF18C
:100AA000030F3AD009DCBCF1000F2AD0BCF1010FD2
:100AB0001CD0BCF1020F31D11DE0BCF1110F17D0D9
:100AC000BCF1120F2AD119E0B8F5881F19D006DC45
:100AD000B8F5803F15D0B8F5801F1FD111E0B8F5EB
:100AE000001F0ED0B8F5041F18D10AE0CB6815E03E
:100AF000CB681B1D12E0CB6808330FE0CB680C33CA
:100B00000CE08B682BB1012B4FF0080303D045613B
:100B100004E0042302E0056100E00023FF2A01D87D
:100B2000064601E000F104064FEA840501D9A5F16B
:100B30002005D6F8008007FA05FC28EA0C0803FA1D
:100B400005F548EA0508C6F800804D68ED0062D555
:100B5000374DAE6946F00106AE61AD6924F003067B
:100B600005F001050095334D06EB050CDCF8085047
:100B7000A607360F07FA06F825EA0805DFF8B88059
:100B8000404503D14FF0000817E044E0DFF8AC80A7
:100B9000404502D14FF001080FE0DFF8A480404546
:100BA00002D14FF0020808E0DFF89880404502D1FA
:100BB0004FF0030801E04FF0040808FA06F848EA8D
:100BC0000508CCF808804D68D9F80060ED024D4664
:100BD00001D5164300E096432E604D68DAF80060B8
:100BE000AD02554601D5164300E096432E604D6890
:100BF000DBF80060AD035D4601D5164300E0964387
:100C00002E604D68DEF80060ED03754601D5164391
:100C100000E096432E60641C0D682A46E5407FF490
:100C200031AFBDE8F88F000008040140000011104A
:100C3000001002400000014000080140000C01408B
:100C40000010014000140140C26821EA02030A407A
:100C500043EA0241016170470AB10161704709042A
:100C6000FBE7000001488068704700001400002086
:100C700002488168027811448160704714000020A6
:100C8000074810B5016841F010010160032000F031
:100C9000A7F80F2000F006F800F050F8002010BD73
:100CA0000020024030B50546204887B0C16941F0B8
:100CB0000101C161C06906A900F00100009001A80E
:100CC00000F068FE0498B8B100F084FE40001849B6
:100CD0004FF08042B0FBF1F11648491E02604160BE
:100CE00040F2E7320021C0E903218160816101F017
:100CF000B1F9040003D015E000F06CFEE7E70D4801
:100D000001F0FEF904000DD11C2000F03BF8102D7D
:100D100007D2002229461C2000F042F80648056050
:100D200000E0012407B0204630BD00000010024062
:100D300040420F00A8050020180000200F4808B509
:100D4000816941F001018161816901F00101009136
:100D5000C16941F08051C161C069002200F080503A
:100D600000900F21901E00F01BF80548416821F00B
:100D7000E06141F00071416008BD000000100240D8
:100D800000000140002809DB00F01F020121914012
:100D90004009800000F1E020C0F800117047000019
:100DA000F0B40E4B1B680C46C3F30223C3F10705D6
:100DB000042D00D90425191D072901D2002300E0C4
:100DC000DB1E012606FA05F1491E214099409E408E
:100DD000761E16403143F0BC03F0D6BF0CED00E0A8
:100DE000064900F0070208684FF6FF03184040EA82
:100DF0000220034A10430860704700000CED00E039
:100E00000000FA0510B50C0607D501F0070101EB4B
:100E1000810100EBC100283005E001EB810100EB0E
:100E2000C10000F5B47099B232B1012202730181A0
:100E3000190C4181002010BD00220273C180F9E726
:100E4000704701EB810200EBC202D0F8EC02D26BDA
:100E500002F0FDBE01EB810200EBC202D0F8EC0211
:100E6000D2F87C2102F056BF70B504460B0601F0A3
:100E7000070000EB800104EBC1014FF001024FF0CD
:100E8000000503D581F82920283103E081F8695154
:100E900001F5B471087094F8A802012808D084F80C
:100EA000A822206803F098FB84F8A852002070BDA7
:100EB000022070BD70B5044601F00F0062689042D8
:100EC00001D9012070BD0B0601F0070000EB800185
:100ED00004EBC1014FF001024FF0000503D581F88A
:100EE0002920283103E081F8695101F5B4718D7032
:100EF000087094F8A802012808D084F8A822206875
:100F000003F007FC84F8A852002070BD022070BDD9
:100F10002DE9F05F04685FEA424C0B788D69B4F804
:100F200050C04FF000064BF68F7948F2800A48F621
:100F30008F7B48F2C00E4FF480672AD54FF002082D
:100F400008EBC308C44407EB4C07E45BC4F3090493
:100F5000A54203D32D1B8D6101D00BE08E61066885
:100F600036F8235005EA090585F4005545EA0A05D7
:100F700026F82350520609D50D78036833F825204A
:100F800002EA0B0242EA0E0223F8252084B30A8902
:100F900029E04FF0060808EBC308C44407EB4C07F0
:100FA000E45BC4F30904A54203D32D1B8D6101D07A
:100FB0000BE08E61066836F8235005EA090585F4D2
:100FC000005545EA0A0526F82350520609D40B7845
:100FD000056835F8232002EA0B0242EA0E0225F8E2
:100FE00023202CB14A8949690068234603F06AFE30
:100FF0002046BDE8F09F2DE9F05F054600680C46ED
:101000005FEA426C16468B692278B0F850C048F609
:101010008F774CF280094FF4004B4FF6FF7E4FF470
:10102000806A4FF0000172D54FF0020808EBC20849
:10103000E0440AEB480C30F80C00C0F3090083428E
:1010400011D91B1AA3610FD0730407D52E6836F887
:1010500022303B4043EA090326F8223094F824204A
:10106000012A47D052E1A161607810B1012813D064
:101070001AE02868B0F85030184400EB0210B0F8BD
:101080000424C2F30902A0F80424B0F8042442F4B2
:101090000042A0F8042407E02868B0F85030184453
:1010A00000EB0210A0F804146278286812B1012A3B
:1010B00011D018E0B0F850100844217800EB01106E
:1010C000B0F80C14C1F30901A0F80C14B0F80C141A
:1010D00041F4004105E0B0F850201044227800EBC4
:1010E0000210A0F80C1421782846FFF7AAFE70041D
:1010F00072D40BE1626902446261E2690244E26116
:101100002369226A9A4203D31846111A04E03EE08A
:1011100084F824100AB110462162617811B10129C6
:1011200029D031E02968B1F850201144227801EB30
:101130000211B1F80424C2F30902A1F8042401F257
:1011400004413E2807D94209C30600D1521E0B882C
:101150004BEA822207E048B14208C30700D0521C84
:101160000B880EEA822213430B800DE00A8842F4BA
:1011700000420A8008E02968B1F850201144227822
:1011800001EB0211A1F8040483B22289BAE04FF006
:10119000060808EBC208E0440AEB480C30F80C00E3
:1011A000C0F30900834211D31B1AA3610FD073044B
:1011B00007D42E6836F822303B4043EA090326F86C
:1011C000223094F82420012A51D09FE0A161607858
:1011D00018B1012814D01BE03FE02868B0F8503067
:1011E000184400EB0210B0F80424C2F30902A0F87E
:1011F0000424B0F8042442F40042A0F8042407E0D8
:101200002868B0F85030184400EB0210A0F804141D
:101210006278286812B1012A11D018E0B0F8501095
:101220000844217800EB0110B0F80C14C1F3090157
:10123000A0F80C14B0F80C1441F4004105E0B0F82B
:1012400050201044227800EB0210A0F80C142178F2
:101250002846FFF7F6FD700458D42278296831F843
:101260002200384040EA090021F822004EE062697D
:1012700002446261E2690244E2612369226A9A429D
:1012800003D31846111A216204E00AB11046216204
:1012900084F824106278296812B1012A28D02FE03E
:1012A000B1F850201144227801EB0211B1F80C245E
:1012B000C2F30902A1F80C2401F20C413E2807D91F
:1012C0004209C30600D1521E0B884BEA822207E076
:1012D00048B14208C30700D0521C0B880EEA822294
:1012E00013430B800CE00A8842F400420A8007E0B6
:1012F000B1F850201144227801EB0211A1F80C043E
:10130000628983B26169286803F02AFD227829681E
:1013100031F8220048F6BF73184080F0300048F2E0
:101320008003184321F822000020BDE8F09F01F05F
:10133000070101EB810100EBC100D0F88401704787
:101340002DE9F04104460F0601F0070000EB800193
:1013500004EBC1014FF001064FF0000503D581F801
:101360002960283103E081F8695101F5B471022B3D
:1013700008700A61CB7000D10D7194F8A8020128A1
:1013800009D084F8A862206802F0D6FF284684F8C5
:10139000A852BDE8F0810220FBE710B501F0070478
:1013A00004EB840100EBC101C1E95F230022C1F815
:1013B000842181F8692181F86841006801F5B471E0
:1013C00003F0FCF9002010BD70B504460D4601F095
:1013D00007006168884201D9012070BD29064FF0DD
:1013E00000064FF0010207D500EB800104EBC101BC
:1013F00081F82920283107E005EB850104EBC101C4
:1014000081F8696101F5B4718A70087094F8A802D6
:10141000012807D084F8A822206803F0B6F96807ED
:1014200002D006E0022070BD04F52C71206803F0A4
:101430006EF984F8A862002070BD10B501F00704B1
:1014400004EB840100EBC101C1E90F23012281F803
:101450004C208B6400234B6481F8292001F8284F2D
:10146000006803F0ABF9002010BD00001FB5044672
:10147000006803F023FC010403D5204601F04CFC76
:101480001FBD41050DD5206830F8441F21F480614F
:101490000180204600F010F90021204600F027F9D5
:1014A0001FBD410405D5206830F8441F21F4804158
:1014B00074E0810405D5206830F8441F21F4005100
:1014C0006CE0C10414D5206830F8401F21F00401FD
:1014D0000180206830F8401F21F00801018020467B
:1014E00000F0FDF8206830F8441F21F4805155E0E9
:1014F000010540D5D4F800200020694632F820309C
:1015000021F81030401CC0B20828F7D332F8400F41
:1015100040F001001080206830F8402F22F00102D6
:1015200002802068B0F844205205FBD530F8442FE3
:1015300022F4806202800020236831F8102023F812
:101540002020401CC0B20828F6D3206830F8401F85
:1015500041F008010180206830F8441F21F4006147
:101560000180206830F8401F41F0040101802046CE
:1015700000F0F2F81FBD810509D5206830F8441F3E
:1015800021F400710180204600F0ADF81FBDC005B8
:10159000FCD5206830F8441F21F4807101801FBD04
:1015A0002DE9F04186B0040004D094F8A90200258A
:1015B00020B108E0012006B0BDE8F08184F8A8520F
:1015C000204600F05BF8032084F8A902206803F0AD
:1015D00097F804F11001142288466846FEF7FFFED2
:1015E00094E80F0002F0F6FF0227D0BB002120682C
:1015F00003F0AEFB002001260EE000BF00EB8001EF
:1016000004EBC10181F8296001F8280F401CCD705E
:101610000D614D61C0B28D6161688142EED80020DC
:1016200012E000BF00EB800104EBC10181F86951B9
:1016300081F8680181F86B51C1F87851C1F87C518B
:10164000401CC0B2C1F8805161688142EAD81422BE
:1016500041466846FEF7C3FE94E80F0003F047F8E2
:1016600010B184F8A972A5E784F8245084F8A9621F
:10167000206803F03AF800209DE7000008B50068F4
:101680000B49884212D10B48C16941F40001C16184
:10169000C069002200F40000009005211420FFF72B
:1016A0007FFBBDE808401420FFF76CBB08BD0000BD
:1016B000005C00400010024070B5044680680125BF
:1016C000022801D0FFF7ACF82946D4F8EC0202F06A
:1016D0000AFCD4F8EC02BDE8704002F0C6BBD0F8BA
:1016E000EC0202F0EABBD0F8EC0202F0F0BB10B55D
:1016F000044690F8A80201280BD0012084F8A80223
:1017000084F82410206803F025FB002084F8A80248
:1017100010BD022010BDD0F8EC2200F52C7110464F
:1017200002F0EDBB10B5044690F8A802012810D0D5
:10173000012084F8A802206803F0B1FA01212046B4
:10174000FFF77EFB206802F0CEFF002084F8A8029D
:1017500010BD022010BD000010B50446D0F8EC0208
:1017600002F00CFCA069002804D00348016841F095
:101770000601016010BD000010ED00E02DE9F84306
:1017800005460078354CC00754D0E0690026C000FB
:1017900008D4E06940F08050E061E069012600F083
:1017A000805000902E480168C90512D40168804617
:1017B00041F480710160FFF755FA074605E000BF6C
:1017C000FFF750FAC01B642823D8D8F80000C005E2
:1017D000F6D5206A10F4407021D0A98801F4407138
:1017E00081421CD0206A1F49012220F440700A6007
:1017F00000220A602062C00711D0FFF733FA0746C3
:1018000041F2883808E000BFFFF72CFAC11B4145C0
:1018100002D90320BDE8F883206A8007F4D5206A46
:10182000696820F44070084320621EB1E06920F02E
:101830008050E0612878800705D56068A96820F4A9
:101840004040084360602878C00605D56068E968B4
:1018500020F48000084360600020DBE700100240B5
:1018600000700040400442422DE9F0470F46050059
:1018700061D0434E306800F00700B84209D23068AA
:1018800020F0070038433060306800F00700B842AD
:1018900051D128683B4C810712D5400703D56068B9
:1018A00040F4E06060602878000703D5606840F489
:1018B000605060606068A96820F0F00008436060D4
:1018C0002878C00728D06868012810D0216802282D
:1018D00010D0890700292EDA616821F00301014345
:1018E0006160FFF7BFF9804641F288390DE0216859
:1018F0008903EFE78901EDE7FFF7B4F9A0EB0801F1
:10190000494502D90320BDE8F0876068696800F0A6
:101910000C00B0EB810FEFD1306800F00700B84247
:101920000BD9306820F0070038433060306800F091
:101930000700B84201D00120E5E72878400705D527
:101940006068E96820F4E060084360602878000778
:1019500006D56068296920F4605040EAC1006060E3
:1019600000F058F86168084AC1F30311515CC8409F
:101970000649086006480068FFF794F90020C2E7AE
:1019800000200240001002409A5800082000002069
:10199000180000200F2202600C4A536803F0030372
:1019A0004360536803F0F0038360536803F4E0631B
:1019B000C36052684FF4E06303EAD2020261044854
:1019C000006800F007000860704700000010024047
:1019D000002002400448054900684968044AC1F3F0
:1019E0000221515CC84070472000002000100240D6
:1019F000AA5800080448054900684968044AC1F328
:101A0000C221515CC84070472000002000100240F5
:101A1000AA5800080E4A51680E4801F00C03042B26
:101A200011D0082B0FD10C48C1F38343C903C05C0C
:101A30000AD55168084AC1F34041921E515C054ADB
:101A40005043B0FBF1F07047044948437047000031
:101A50000010024000127A008A58000800093D0078
:101A60002DE9F84F040070D02078C04DC00749D050
:101A70006868C0F38100012807D06868C0F381005E
:101A8000022809D16868C00306D52868800339D5C3
:101A900060680028E7D035E06068B0F5803F0BD083
:101AA00010B1B0F5A02F11D0286820F48030286044
:101AB000286820F4802002E0286840F48030286004
:101AC000606890B1FFF7CEF806460AE0286840F457
:101AD00080202860F0E700BFFFF7C4F8801B64286F
:101AE00073D828688003F7D50CE0FFF7BBF80646EB
:101AF00005E000BFFFF7B6F8801B6428F0D828681F
:101B00008003F7D420789A4E80074FF001094FF0F8
:101B1000000839D5686810F00C0F07D06868C0F36A
:101B20008100022809D16868C00306D428688007AC
:101B300014D52069012808D110E02069B0B1C6F899
:101B40000090FFF78FF8074605E00AE1FFF78AF8F3
:101B5000C01B0228C4D828688007F7D528686169A7
:101B600020F0F80040EAC10028600DE0C6F80080CF
:101B7000FFF778F8074604E0FFF774F8C01B022867
:101B800023D828688007F7D4207800072CD5794817
:101B9000A169D9B1C0F80090FFF764F8074604E0E6
:101BA000FFF760F8C01B02280FD8686A8007F7D5D6
:101BB00071484FF4FA510068B0FBF1F0009000BF9B
:101BC0000098411E0091FAD20EE080E0C0F800803B
:101BD000FFF748F8074604E0FFF744F8C01B022867
:101BE00075D8686A8007F7D42078400760D5E8691F
:101BF0000027C00008D4E86940F08050E861E86937
:101C0000012700F0805000905C480168C90513D49A
:101C10000168834641F480710160FFF723F8824632
:101C200006E000BFFFF71EF8A0EB0A0064284ED8BC
:101C3000DBF80000C005F5D5E06801280AD008B13E
:101C4000052813D0286A20F001002862286A20F0B5
:101C5000040002E0286A40F001002862E06841F2D6
:101C6000883B98B1FEF7FEFF82460BE0286A40F001
:101C700004002862EEE700BFFEF7F4FFA0EB0A01C4
:101C800059455AD8286A8007F6D50CE0FEF7EAFFD6
:101C9000824605E0FEF7E6FFA0EB0A0159454CD865
:101CA000286A8007F6D41FB1E86920F08050E86107
:101CB000E06988B36968C1F38101022944D0022830
:101CC000C6F8608004D0FEF7CDFF044638E034E06B
:101CD000FEF7C8FF074604E0FEF7C4FFC01B02285A
:101CE0002BD828688001F7D4206AB0F5803F05D151
:101CF0006868A16820F4003008436860D4E90801EE
:101D00000843696821F4741108436860C6F860905C
:101D1000FEF7A8FF044606E025E000BFFEF7A2FF9D
:101D2000001B022809D828688001F7D51BE000BFF6
:101D3000FEF798FF001B022802D90320BDE8F88FA8
:101D400028688001F4D40EE00128F7D06868226A80
:101D500000F48031914204D1616A00F4701088422D
:101D600001D00120EAE70020E8E70000001002406F
:101D700000004242800442422000002000700040E7
:101D8000704770B5040009D0606A002540B1256134
:101D90006561A56294F8510040B10CE0012070BD6E
:101DA0006068B0F5827FF4D0E561F2E784F85050C6
:101DB000204600F03FF8022084F8510020680168B6
:101DC00021F040010160A088218900F4827001F4B3
:101DD00004410843A18901F400610843217C01F01A
:101DE00002010843217D01F001010843218B01F428
:101DF00000710843217F01F03801084394F8201056
:101E000001F080010843218D01F40051084321684D
:101E10000860A069042101EA104021684860206838
:101E2000C16921F40061C1616565012084F8510038
:101E3000002070BD70B586B000250646009501955E
:101E40000295039500681A4988422ED1194988697C
:101E500040F480508861886900F48050049088695B
:101E600040F0040088618869694600F0040004902D
:101E7000A020009002200190032003900E48FEF75E
:101E8000F3FD0F4C0D4820601020C4E901058020AF
:101E9000C4E903056561A5612046E561FEF76CFDB7
:101EA00008B1FEF7BDFCB464666206B070BD000008
:101EB00000300140001002400008014030000240A4
:101EC000D404002070B5044690F850000026012884
:101ED00009D0012084F8500094F851000025012811
:101EE00003D002264AE0022070BD89B182B10320EE
:101EF00084F8510065652163A286E286A563656466
:101F00002564A587E587A068B0F5004F02D00BE0F7
:101F1000012633E02068016821F04001016020685B
:101F2000016841F480410160A16C1648C862A16C4F
:101F300015488862A16C15480863A06C4563E38E60
:101F40002268216B0C32A06CFEF744FD20B1606D5D
:101F500040F010006065DBE720680168490603D4A3
:101F6000016841F0400101602068416841F02001B2
:101F700041602068416841F00201416084F850509E
:101F8000304670BDE7300008F1300008C530000869
:101F9000704770477047704710B590F83C20012A91
:101FA00022D0012280F83C20CA688C6822F440725A
:101FB00022434C6822F4806222430C6822F40062BF
:101FC00022430C6922F4805222434C6922F40052CD
:101FD0002243C969002322F480420A4301684A640B
:101FE00080F83C30002010BD022010BD70B590F884
:101FF0003C20012A26D0012480F83C40022280F8AF
:102000003D2003685A689D6822F070060A683243D2
:102010005A600D4B02689A4208D0B2F1804F05D049
:102020000A4B9A4202D00A4B9A4204D1496825F0E1
:1020300080031943916080F83D40002180F83C10F6
:10204000084670BD022070BD002C01400004004015
:102050000008004010B5040003D094F83D0010B112
:1020600007E0012010BD002084F83C00204600F06D
:102070001EF8022084F83D00211D206801F0C2F9FD
:10208000012084F8460084F83E0084F83F0084F87C
:10209000400084F8410084F8420084F8430084F84A
:1020A000440084F8450084F83D00002010BD7047CE
:1020B00090F83D10012901D001207047022180F8DD
:1020C0003D1000680B49884208D0B0F1804F05D020
:1020D0000949884202D00949884204D1816801F047
:1020E0000701062903D0016841F0010101600020C9
:1020F00070470000002C0140000400400008004030
:1021000090F83D10012901D001207047022180F88C
:102110003D100168CA6842F00102CA6000680B49BC
:10212000884208D0B0F1804F05D00949884202D0DA
:102130000849884204D1816801F00701062903D0CB
:10214000016841F00101016000207047002C01404E
:10215000000400400008004001680A6A41F21113BF
:102160001A4207D10A6A9B101A4203D10A6822F068
:1021700001020A60012180F83D100020704770477D
:1021800070B50446006801694FF00005C94389072E
:1021900015D4C168C943890711D4E91E0161012022
:1021A0002077206880698007204602D0FFF7E7FF8C
:1021B00004E000F0E8F8204600F078FA257720687F
:1021C0000169C943490717D4C168C943490713D4F2
:1021D0006FF004010161022020772068806910F40B
:1021E000407F204602D0FFF7CAFF04E000F0CBF8A2
:1021F000204600F05BFA257720680169C94309078A
:1022000016D4C168C943090712D46FF008010161EF
:10221000042020772068C0698007204602D0FFF79D
:10222000AEFF04E000F0AFF8204600F03FFA25775B
:1022300020680169C943C90617D4C168C943C906E2
:1022400013D46FF010010161082020772068C06965
:1022500010F4407F204602D0FFF791FF04E000F029
:1022600092F8204600F022FA257720680169C943D8
:10227000C90708D1C168C943C90704D1891E0161D2
:10228000204600F063FA20680169C943090609D4B1
:10229000C168C943090605D46FF080010161204679
:1022A000FFF778FE20680169C943490609D4C1686F
:1022B000C943490605D46FF040010161204600F092
:1022C0004CFA20680169C94389060BD4C168C94327
:1022D000890607D46FF0200101612046BDE87040F7
:1022E000FFF759BE70BD000000B585B00021009118
:1022F00001910291039100680B49884212D10B4869
:10230000816941F0040181618069694600F004003F
:1023100004904FF4806000900220019003900448E4
:10232000FEF7A2FB05B000BD002C014000100240EA
:102330000008014070B5044690F83C0000250128D3
:102340000FD0012084F83C006AB1042A0FD0082A7B
:1023500011D00C2A13D00125002084F83C00284617
:1023600070BD022070BD206801F090F8F4E720688D
:1023700001F0B4F8F0E7206801F0DCF8ECE7206841
:1023800001F004F9E8E7704710B5040003D094F8B1
:102390003D0010B107E0012010BD002084F83C0092
:1023A000204600F01FF8022084F83D00211D20681F
:1023B00001F028F8012084F8460084F83E0084F8F3
:1023C0003F0084F8400084F8410084F8420084F81B
:1023D000430084F8440084F8450084F83D00002060
:1023E00010BD000008B500680B49884212D10B48A7
:1023F000816941F4006181618069002200F400601C
:10240000009005211B20FEF7CBFCBDE808401B20F7
:10241000FEF7B8BC08BD0000002C014000100240CF
:1024200010B50446022249B104290ED0082913D060
:1024300094F84100012816D0012010BD94F83E0008
:102440000128F9D184F83E200FE094F83F000128DC
:10245000F2D184F83F2008E094F840000128EBD145
:1024600084F8402001E084F841200122206800F037
:10247000FFFF0F492068884203D1426C42F40042BA
:1024800042642068884208D0B0F1804F05D00949E5
:10249000884202D00849884204D1816801F00701CE
:1024A000062903D0016841F001010160002010BD40
:1024B000002C0140000400400008004030B5002519
:1024C0000446022249B1042912D008293ED094F8CA
:1024D0004100012845D0012030BD94F83E0001287C
:1024E000F9D184F83E202068C26842F0020209E077
:1024F00094F83F000128EED184F83F202068C2689C
:1025000042F00402C2600122206800F0B1FF1A49C3
:102510002068884203D1426C42F400424264206841
:10252000884208D0B0F1804F05D01449884202D0CB
:102530001349884204D1816801F00701062903D0BC
:10254000016841F001010160284630BD94F8400067
:102550000128C0D184F840202068C26842F00802F7
:10256000D0E784F841200C2901D00125ECE7206850
:10257000C26842F01002C5E7002C01400004004090
:102580000008004070B5044690F83C0000260D4657
:1025900001280FD0012084F83C006AB1042A1DD024
:1025A000082A2FD00C2A3FD00126002084F83C00B6
:1025B000304670BD022070BD206800F067FF2068C3
:1025C000816941F0080181612068816921F004017D
:1025D0008161206881692A69114311E0206800F057
:1025E0007DFF2068816941F4006181612068816913
:1025F00021F480618161206881692A6941EA0221B0
:102600008161D2E7206800F095FF2068C16941F040
:102610000801C1612068C16921F00401C16120681D
:10262000C1692A69114311E0206800F0AFFF2068FA
:10263000C16941F40061C1612068C16921F4806110
:10264000C1612068C1692A6941EA0221C161ACE720
:1026500010B5040003D094F83D0010B107E001204C
:1026600010BD002084F83C00204600F01EF8022037
:1026700084F83D00211D206800F0C4FE012084F88C
:10268000460084F83E0084F83F0084F8400084F857
:10269000410084F8420084F8430084F8440084F840
:1026A000450084F83D00002010BD704770470000D1
:1026B00010B50446022249B104290ED0082913D0CE
:1026C00094F84100012816D0012010BD94F83E0076
:1026D0000128F9D184F83E200FE094F83F0001284A
:1026E000F2D184F83F2008E094F840000128EBD1B3
:1026F00084F8402001E084F841200122206800F0A5
:10270000B7FE0F492068884203D1426C42F4004270
:1027100042642068884208D0B0F1804F05D0094952
:10272000884202D00849884204D1816801F007013B
:10273000062903D0016841F001010160002010BDAD
:10274000002C014000040040000800400068B0F187
:10275000804F01D1FEF78CBA7047704770B5040006
:1027600004D094F84100002510B106E0012070BDAE
:1027700084F84050204600F023F8242084F84100DB
:102780002068C16821F40051C160204600F020FF9C
:102790002068016921F4904101612068416921F0BC
:1027A0002A0141612068C16841F40051C16065643B
:1027B000202084F8410084F842006563002070BD49
:1027C00030B585B00024009401940294039400680D
:1027D000174988422AD11748816941F480418161B3
:1027E000816901F480410491816941F008018161AE
:1027F0008069114D00F008000490402000900220F4
:1028000001900320039069462846FEF72DF98020A9
:10281000CDE90004694628460294FEF725F90748E9
:10282000416841F0E06141F00401416005B030BD14
:102830000038014000100240000C0140000001403F
:10284000FEE70000F0B500230A24302537261F4696
:1028500011E000BFB4EB107F02D905EB107C01E062
:1028600006EB107C01F813C001EB430C00015B1C6C
:102870008CF80170DBB29342ECD3F0BD064D4FF4FF
:1028800000544FF47A7621462846FEF7DDF93046AB
:1028900002F0A3FAF7E7000000100140094808B56C
:1028A000416941F0010141614069002200F00100ED
:1028B000009005210D20FEF773FABDE808400D20B9
:1028C000FEF760BA0010024010B59CB01C221649F9
:1028D0006846FDF784FD0021684602F08AFA134C31
:1028E00011491C2220601C3107A8FDF778FD00214A
:1028F00007A802F07EFA0C4960601C2238310EA84D
:10290000FDF76DFD00210EA802F073FA0649A060E4
:102910001C22543115A8FDF762FD002115A802F014
:1029200068FAE0601CB010BD1858000800000020D4
:102930002DE9F04186B000242448009401940294CB
:102940000394816941F010018161816901F01001F6
:102950000491816941F020018161816901F02001C8
:102960000491816941F004018161816901F00401F0
:102970000491816941F0080181618069144F00F080
:1029800008004FF400550490002229463846FEF70F
:1029900063F9DFF84080002208214046FEF75CF929
:1029A0000095022601250396CDE901546946384673
:1029B000FEF75AF80820CDE90005CDE90246694640
:1029C0004046FEF751F806B0BDE8F0810010024025
:1029D0000010014000080140104810B50E49016088
:1029E0004FF48271416000218160C1604FF4007238
:1029F0000161C0E905121822C0E907214162816224
:102A00000A21C162FFF7BDF9002803D0BDE81040DC
:102A1000FDF706BF10BD0000003001407C0400201F
:102A200070B592B000240F941C2168461094FDF7F5
:102A30002AFD202107A8FDF726FD2C4D2A48022655
:102A4000C5E9000640F2F450C5E9024080202C613F
:102A5000C5E905402846FFF797FC08B1FDF7E0FE01
:102A60002248FFF7F5FD08B1FDF7DAFE0F940FA934
:102A70001E481094FFF7BAFA08B1FDF7D1FE009492
:102A80000194029403940494059400226946174823
:102A90000694FFF74FFC08B1FDF7C2FE2868816974
:102AA00041F0080181616020009008226946029689
:102AB0000E48FFF767FD08B1FDF7B2FE07940894D2
:102AC00009944FF400500A94CDE90B4007A9074838
:102AD0000E94FFF761FA08B1FDF7A2FE0348FFF775
:102AE00003FC12B070BD0000002C0140180500204E
:102AF0000C4810B50A4901604FF4E13141600021F2
:102B000081600C22C160C0E904128161C161FFF7DC
:102B100025FE002803D0BDE81040FDF781BE10BDA2
:102B2000003801406005002010B500220F49104810
:102B300001F066F808B1FDF773FE0E490C4801F08C
:102B400043FA08B1FDF76CFE0B49094800F080FE1E
:102B500008B1FDF765FE064801F08CFA002803D0A5
:102B6000BDE81040FDF75CBE10BD000084000020F1
:102B7000E0120020C8010020DC000020FEE7FEE794
:102B80000A4601460148FFF79DB900007C04002079
:102B9000034B988000F583705880D9801A81704764
:102BA0000002002070B5234800680169C943890705
:102BB0003ED4C168C94389073AD46FF0020101616C
:102BC0001D4C6269208900F11E018A4219DBE189EE
:102BD000084461691D30884213DB184D207805EBED
:102BE0000010C188606AFFF7CBFF207805EB00106A
:102BF000017A11B16169C90703D0C088616A0844CC
:102C0000606261690E48022905DB6169042902DC02
:102C100040F2845100E0702101606069401C6061F5
:102C200060696188884203DD01206061206A60621A
:102C300070BD00001805002000020020B45E0008EE
:102C40003C2C01402DE9F041042800D902202D4CF4
:102C50002D4D002605EB00122070108860815088F1
:102C6000A081D388434398B220829288E281667023
:102C7000012719B121626770084602E0FDF714FBD5
:102C80002062676160622078204905EB0010C0680F
:102C9000C8610846FFF775F808B1FDF7C1FD1C488B
:102CA000FFF75AFA1B4902200860091D40F2F45050
:102CB000086018497020143108601649E0880C310A
:102CC000A53008601348001F0660124814380168D8
:102CD00041F00101016008210D48FFF7E9FC0021E6
:102CE0000B48FFF79DFB00210948FFF7E7FB084869
:102CF0000068C16841F00201C160BDE8F0410448CC
:102D0000FFF7D6B900020020B45E00087C04002062
:102D100018050020282C01402DE9F84F044640F604
:102D20008F7B48F60F794FF480684FF0000AC0E1BE
:102D3000B0F8441011F00F0539D030F82560310497
:102D40007ED530F8251001EA0B0141F0800120F812
:102D5000251005EB850004EBC00797F8740107F513
:102D6000B47700286DD0F87802286BD039782268C3
:102D700032F8210048F68F73184048F2C003184318
:102D800022F821003978206830F82120B0F850303E
:102D900052047DD5022202EBC1015A1808EB420110
:102DA000415A8905890D009173D03A89DFE0C9063F
:102DB0002DD4018801EA090141F400410180206815
:102DC00004F12805B0F850302978022202EBC10145
:102DD0005A1808EB4201405AC0F309006064E16BE5
:102DE0000844E06300212046FEF72BF894F8240005
:102DF00000289CD0A869002899D194F82400216863
:102E000040F08000A1F84C0084F824A051E1018832
:102E100004F5B4750A0521D5B0F850202B780621A9
:102E200001EBC3010A4408EB4201405A04F52C713E
:102E3000C0F30903EB61EA88206801F043FF02E078
:102E4000B0E070E080E02068018801EA0B0141F009
:102E5000800101802046FEF75EFC2AE10904D5D5F9
:102E6000018801EA0B0141F0800101802068B0F87F
:102E700050202B78062101EBC3010A4408EB4201E4
:102E8000405A83059B0DEB6110D0696971B101E077
:102E900061E05FE0EA88206801F014FFE969686991
:102EA0000844686100212046FDF7D4FF21680888A6
:102EB0000205ABD4C0F301300328A7D0B1F850000D
:102EC0000844B0F80C14C1F30901A0F80C142A69E5
:102ED00000F20C403E2A09D95109D20600D1491E00
:102EE00002884FF4004343EA812109E0B2B151085E
:102EF000D20700D0491C02884FF6FF7303EA8121F4
:102F00000A430280216808884BF68F72104080F4D3
:102F1000405048F2800210430880CAE0018841F422
:102F200000410180EEE72068B0F850203B78062190
:102F300001EBC3010A4408EB4201415A8905890D9E
:102F4000009118D0FA8812E0324639462046FDF743
:102F5000DFFF00900FE0062202EBC1015A1808EBD8
:102F60004201415A8905890D009104D07A89796915
:102F7000009B01F0A7FEF86900990844F86179699F
:102F8000009808447861B86918B13969009881429D
:102F900004D939782046FDF75DFF03E03946206803
:102FA00001F00CFC30062FD505EB850004EBC001C9
:102FB000206830F8252002EA090242F4004220F895
:102FC000252091F82B00283101281ED0F0056CD463
:102FD0002068B0F850300D78022202EBC5021A4486
:102FE00008EB4202805A8A69C0F30900824255D92F
:102FF000121A8A6154D04A6902444A61CA6910446B
:10300000C861206801F0DAFB53E0C1F818A0087B22
:10301000524608B3700620D5487810B1012812D066
:103020003AE02068B0F8502010440A7800EB021013
:10303000B0F80424C2F30902A0F80424B0F8042470
:1030400042F4004206E02068B0F8503018440B7893
:1030500000EB0310A0F804241EE04B78206813B1A5
:10306000012B11D018E0B0F8502010440A7800EB82
:103070000210B0F80C24C2F30902A0F80C24B0F836
:103080000C2442F4004205E0B0F8503018440B78AC
:1030900000EB0310A0F80C24097802E0C1F818A096
:1030A000E9B22046FDF7CDFE03E032462046FDF7AB
:1030B000A2FF2068B0F8441009043FF539AE0020A3
:1030C000BDE8F88F10B5406A01684A6822F0030233
:1030D0004A60416D41F010014165012180F85110B5
:1030E000FEF74EFE10BD10B5406AFEF752FF10BD50
:1030F00038B50546446AFDF7B5FD02462868006804
:10310000800623D42068416821F0200141602068B6
:10311000416821F0020141606421204600F01AF864
:1031200018B1606D40F020006065A068002118B9FA
:103130002068C26880680090E186012084F8510010
:10314000606D18B12046FEF71BFE38BD2046FEF725
:103150001FFF38BD38B50B4600920446002280217F
:1031600000F008F8002804D0606D40F02000606591
:10317000032038BD2DE9F8431E4691468846044693
:10318000089DFDF76FFD401B351AFDF76BFD0746E7
:1031900025480068C0F3CB30684338E0701C37D056
:1031A000FDF760FDC01BA84203D215B1009860B3C3
:1031B0002CE02068416821F0E00141606068B0F5D2
:1031C000827F0BD1A068B0F5004F02D0B0F5806FC0
:1031D00004D12068016821F040010160A06AB0F5C7
:1031E000005F09D12068016821F400510160206866
:1031F000016841F400510160012084F85100002071
:1032000084F850000320BDE8F8830025401E00909C
:103210002068816838EA010004D000214945BDD109
:103220000020F0E70121F9E72000002000F032F84B
:1032300000F004F8052001F0D0FDF9E708B51E22E2
:1032400000212820FFF7A4FC0CA20021022000F09E
:103250005BF80D480022017801290BD0022908D122
:1032600002700A4800906023142210210020FDF70C
:10327000ADFA08BD02700648F4E7000053544D3320
:10328000325F435254000000D60000202824002062
:10329000E61D002010B509490120FFF7D3FC01F01D
:1032A0002BFD4FF43D6421460448FDF7CAF8214642
:1032B000BDE810400148FDF7C4B800007C3700208D
:1032C000F0B50646203AD0B20D4601280ED90D4978
:1032D000002401EB00173819291910F8102C30467A
:1032E000FDF792FA641C102CF5DBF0BD0028FCD130
:1032F0000024291900223046FDF786FA641C102CA0
:10330000F7DBF0BDB4580008F0B514460F4605468B
:10331000074E09E07089B5EBD00F08DA3946284628
:10332000FFF7CEFF641C6D1C2278002AF2D1F0BD9D
:1033300000020020FFF7F8FB012001F04EFDFBE743
:1033400010B5502080F31188BFF34F8FBFF36F8FFC
:1033500002F09CF918B104494FF080500860002039
:1033600080F3118810BD000004ED00E030B593B08B
:1033700028216846FDF787F814210AA8FDF783F88D
:10338000002401200F9410941194010412948DE8EC
:10339000130004904FF4E010CDE9081002250795C2
:1033A0006846FEF75DFB08B172B6FEE70F20CDE977
:1033B0000A054FF48060CDE90C4002210AA80E9462
:1033C000FEF752FA08B172B6FEE710200F90129481
:1033D0000FA8FEF7D3F9002801D072B6FEE713B0AC
:1033E00030BD704710B5FFF7DDFB024901200870C2
:1033F00010BD0000100000200148FEF7C1BE000013
:10340000A8050020F0B50268164B174C174D4FF079
:103410008047984205D0B84203D0A04201D0A842CC
:1034200003D122F070064A683243984205D0B84270
:1034300003D0A04201D0A84203D122F44074CA684C
:1034400022434C6922F08002224302608A68C262F1
:103450000A688262984201D10969016301214161D0
:10346000F0BD0000002C01400004004000080040B6
:1034700010B501F01F030121046A99408C430462D6
:10348000016A9A401143016210BD000030B5036A21
:10349000026A22F0010202624268846924F0730524
:1034A0000C682C4323F002058B682B430A4DA8427D
:1034B0000BD123F00805CB6822F440722B434D69F1
:1034C00023F0040315438A692A43426084614968F2
:1034D0004163036230BD0000002C014030B5026A38
:1034E000036A23F010030362436884690D6824F4BF
:1034F000E64444EA05248D6822F0200242EA0512DF
:103500000B4DA8420ED1CD6822F0800242EA05128E
:103510004D6923F4406343EA85038D6922F040023C
:1035200043EA85034360846149688163026230BD78
:10353000002C014030B5036A026A22F480720262F4
:103540004268C46923F4007324F073050C682C43AB
:103550008D6843EA05230C4DA8420ED1CD6823F4B3
:10356000006343EA05234D6922F4405242EA051202
:103570008D6923F4806342EA05124260C4614968A0
:10358000C163036230BD0000002C014030B5046A05
:10359000026A22F4805202624268C3690D6823F411
:1035A000E64343EA05238D6824F4005444EA0534D5
:1035B000064DA84204D14D6922F4804242EA8512A8
:1035C0004260C36149680164046230BD002C01405F
:1035D00070B5044600680169E26821F44051114366
:1035E00001612169A0680843616908432168CA68CC
:1035F00041F20C639A430243CA6020684169A269A0
:1036000021F44071114341611E492068884202D172
:10361000FEF7F0F901E0FEF7DDF900EBC00101EB88
:103620000012606864218000B2FBF0F3B3FBF1F399
:103630006FF018067343B2FBF0F5B2FBF0F605EB42
:103640008305322303EB0515B5FBF1F5B6FBF1F667
:1036500005F0F00505EB0615B2FBF0F6B2FBF0F055
:10366000B0FBF1F06FF01802504306EB800003EB63
:103670000010B0FBF1F0216800F00F0028448860D2
:1036800070BD0000003801402DE9F041D0F8C03293
:10369000D0F8B822CAB101EB810500EB8504002601
:1036A000E7693FB103EBC5039B6BB7FBF3F503FB86
:1036B000157323B1C2F814620020BDE8F081002325
:1036C0001A46E66100F063FCF6E70220F5E770B504
:1036D0000546D0F8B84200F05EFBC4F80C02D5F8FD
:1036E000B80248B1D5F8BC12D4F80402CA6804F58F
:1036F00003719047002070BD022070BD70B5044674
:103700000026812100F09AFA002501212046E56279
:1037100000F094FA82212046C4F86C5100F08EFA31
:103720002564D4F8B80248B1D4F8BC0204F52E746C
:1037300040688047206800F0FAFD2560304670BD83
:1037400010B5D0E9AE4159B194F80002FF2807D076
:103750008B6894F8012221469847FF2084F80002E4
:10376000002010BD0A21018000487047F0000020B1
:10377000432101800048704740010020432101801F
:1037800000487047FC00002043210180004870473A
:10379000840100202DE9F04104460026007C4FF40E
:1037A0000077012590B3402302228121204600F0BA
:1037B00047FB4023E56202220121204600F040FB46
:1037C0000823032282212046C4F86C5100F038FB04
:1037D0004FF40770256400F0ABFDC4F8B802F8B1EF
:1037E0000546D4F8BC02006880470020C5F81402E2
:1037F000C5F81802207CD5F8042298B14023012195
:10380000204600F029FB3046BDE8F081FFE73B464B
:1038100002228121204600F013FB3B46E562CAE705
:103820000126F0E73B46EAE710B5D0F8B81269B1D7
:10383000027C002AD1F8042205D04023012100F0A7
:103840000BFB002010BD4FF40073F7E7022010BD02
:1038500002460220002902D00020C2F8BC127047A4
:10386000D0F8B802C0F8041200207047D0F8B802AF
:10387000C0F81022C0F80812002070472DE9FC4162
:103880000546D0F8B87200208DF80000ADF80400AD
:10389000064608780C4610F0600121D020293BD163
:1038A000E288AAB10006607807D5D5F8BC128B680B
:1038B00039469847E288394626E087F80002A07921
:1038C00087F80102E2883946284600F04FF828E0E0
:1038D000D5F8BC12607800228B682146984720E01A
:1038E000607820B10A2809D00B2815D110E095F88E
:1038F0009C02032810D1022201A905E095F89C0240
:10390000032809D101226946284600F049F808E059
:1039100095F89C02032804D02146284600F01BF8A5
:1039200002263046BDE8FC8110B5D0F8B4225268BA
:103930009047002010BD134610B50A46002100F044
:103940008BFA002010BD134610B50A46002100F086
:103950001EFB002010BD10B50446802100F0FCFACB
:103960002046BDE81040002100F0F6BA10B5032350
:10397000C0F85C21C0F89432C0F8602113460A46B2
:10398000002100F069FA002010BD10B505210023C8
:10399000C0F894121A46194600F05EFA002010BDD5
:1039A00010B50223C261C0F89432026213460A467F
:1039B000002100F0ECFA002010BD10B50421002316
:1039C000C0F894121A46194600F0E1FA002010BD22
:1039D00010B50A46024903A000F0E2F8004810BD05
:1039E000A415002043444320436F6E6669670000BE
:1039F0001220088000487047A400002010B50A4635
:103A0000024903A000F0CCF8004810BDA415002026
:103A100043444320496E746572666163650000002B
:103A20000420088000487047A000002010B50A4616
:103A3000024903A000F0B4F8004810BDA41500200E
:103A400053544D6963726F656C656374726F6E6910
:103A50006373000010B50A46024903A000F0A0F805
:103A6000004810BDA415002053544D333220566930
:103A7000727475616C20436F6D506F72740000003A
:103A800010B51A2008800A480168001D0468001D4E
:103A90000068081809D008220649FEF7D3FE054938
:103AA000042210312046FEF7CDFE0248801E10BDD4
:103AB000E8F7FF1FBA000020F8B504460020ADF873
:103AC000000048880D46010A082948D2DFE801F0C5
:103AD0004704091747473C45D4F8B012207C0A68D0
:103AE00019E0207C02260028D4F8B40205D0C16A6F
:103AF00068468847014646703EE0816AF8E7C0B2F2
:103B000006282CD2DFE800F0030A1014181CD4F8A1
:103B1000B002426805E0694690471CE0D4F8B00264
:103B20008268E2B1207CF6E7D4F8B002C268F8E718
:103B3000D4F8B0020269F4E7D4F8B0024269F0E7C1
:103B4000D4F8B0028269ECE7207C40B9D4F8B40222
:103B5000416B6846884701460EE0207C20B129462B
:103B60002046FFF7F8FEF8BDD4F8B402016B6846B2
:103B70008847014607204870BDF8000048B1EA8830
:103B800052B1824200D90246ADF800202046FFF72C
:103B900007FFE8880028E6D12046FFF70EFFF8BDB2
:103BA00070B5002300281ED00446002502E06D1CDD
:103BB000EDB2641C2678002EF9D1022404EB4504F2
:103BC00014801278CA545B1C0322CA5400245B1C64
:103BD00006E0CA545B1CDAB28C54521CD3B2401CAF
:103BE0000278002AF5D170BD01004FF0000004D02A
:103BF000012901D0022901D002207047012070471D
:103C000010B580B1D0F8B43213B10023C0F8B4328B
:103C100009B1C0F8B012012180F89C12027000F0C6
:103C2000BFF8002010BD022010BD10B5D0F8C002B2
:103C3000FDF740F9BDE81040FFF7D6BF10B5D0F84A
:103C4000C002FDF711F9BDE81040FFF7CDBF2DE927
:103C5000F0411746044651B1D4F8B40242691AB192
:103C600094F89C02032851D00220BDE8F081D4F8DA
:103C70009432002504F11400022B03D0042B3AD017
:103C8000C3B33CE0D0E903639E4207D9F11AC16097
:103C90008AB239462046FFF756FE12E08068B0FB34
:103CA000F3F103FB110199B9984211D3D4F898129A
:103CB00088420DD2002211462046FFF744FEC4F888
:103CC000985200231A461946204600F0C5F816E01F
:103CD000D4F8B402C16829B194F89C02032801D138
:103CE000204688478021204600F036F92046FFF71D
:103CF0004CFE04E0FFE78021204600F02DF994F807
:103D0000A002012804D184F8A05201E02046904787
:103D10000020AAE770B51546044649B1D4F8B402AC
:103D200082691AB194F89C02032830D0022070BD39
:103D3000D4F8941204F5AA70032902D005291ED0E4
:103D400027E0D0E903218A420BD9531AC360084601
:103D5000834200D303469AB229462046FFF7EBFD83
:103D600017E0D4F8B402016929B194F89C02032841
:103D700001D1204688472046FFF71FFE09E00020BA
:103D80000146C4F89402204600F0E6F801E020461F
:103D90009047002070BDD0F8C002FDF7C8BA0000FF
:103DA00010B504461C481D49C0F8EC42C4F8C002D6
:103DB0000160082141600221816000218161C161AF
:103DC0000162FDF7EDFB08B1FCF72AFD0022D4F8F3
:103DD000C0021823114604F53074FDF713F8582378
:103DE000002280212068FDF70DF8C02300228121E8
:103DF0002068FDF707F84FF488730022012120683E
:103E0000FDF700F84FF48073002282212068FCF750
:103E1000F9FF002010BD00008C340020005C004041
:103E20000A0601F07F01D0F8C00201EB810100EB2E
:103E3000C10002D590F82A00704790F86A017047D7
:103E400010B51C461346D0F8C0022246FDF778FA9A
:103E5000BDE81040FFF7C8BE10B5D0F8C002FDF7AE
:103E60009CFABDE81040FFF7BFBE70B500220446C3
:103E700040231146FFF7E4FF40260125C4F86461A2
:103E80003346002280212046C4F85851FFF7D8FF5E
:103E90006662A56184F89C520020C4F894026060B8
:103EA000C4F8A402D4F8B80228B1D4F8B4020021AE
:103EB000426820469047002070BD90F89C1204296B
:103EC00003D190F89D1280F89C120020704710B525
:103ED00090F89C12032904D1D0F8B412C96901B139
:103EE0008847002010BD01740020704710B5D0F83D
:103EF000C002FDF7FCFBBDE81040FFF775BE70B5D2
:103F0000044600F52A70054600F04AF80120C4F87E
:103F10009402B4F8AE02C4F8980294F8A80210F023
:103F20001F010AD001290DD0022910D000F0800114
:103F3000204600F011F8002070BD2946204600F010
:103F40009EF8F8E72946204600F0CAF9F3E729462B
:103F5000204600F01DF9EEE710B5D0F8C002FDF7DD
:103F600033FABDE81040FFF73FBE10B5D0F8C002ED
:103F7000FDF7D8FBBDE81040FFF736BE90F89C1265
:103F800080F89D12042180F89C120020704710B523
:103F9000D0F8C002FDF751FABDE81040FFF724BE8B
:103FA0000A7802704A7842708A78CB7802EB032252
:103FB00042800A794B7902EB032282808A79C9799F
:103FC00002EB0121C18070470246002011B1C2F806
:103FD000B41270470220704710B5D0F8B422022402
:103FE0001AB11268904700B90024204610BD0000A5
:103FF00070B50E461E4D897804462970012931D8C6
:1040000094F89C0202280BD003280FD0314620469A
:10401000FFF7A1FC29782046BDE87040FFF784BC7B
:10402000D9B10320616084F89C0209E071B1606835
:10403000884212D0C1B22046FFF776FC2978616031
:104040002046FFF7C9FF02280CD006E0022084F8C2
:104050009C0220466160FFF767FC2046BDE8704087
:10406000FFF7ABBC31462046BDE87040FFF773BC9C
:10407000EC00002010B5FFF778FF002010BD2DE9FF
:10408000F0410A78002612F0600208D0202A01D000
:10409000402A70D1D0F8B422926890476DE04B78F6
:1040A000002201250A2B66D2DFE803F0405D655748
:1040B000650805652C29FFF7FFFC5EE0044688884B
:1040C000D8B9C888C8B94888802816D200F07F07B8
:1040D00094F89C02032810D084F89E72394620463A
:1040E000FFF704FF2046FFF768FC1FB1022084F8A9
:1040F0009C0242E084F89C523FE020463BE0FFF700
:1041000077FF3AE0CB88012B35D190F89C32012B18
:1041100004D0022B02D0032B2DD104E082600122B7
:1041200000F1080116E00122011D13E090F89C2225
:10413000012A03D0022A01D0032A1CD1CA88022AEC
:1041400019D1C560D0F8A41209B10321C1600222BF
:1041500000F10C01FFF724FC0FE0498801290CD184
:10416000C0F8A45211E090F89C32012B08D0022B29
:1041700006D0032B04D0FFF7EEFB3046BDE8F081FC
:1041800049880129F9D1C0F8A422FFF716FCF4E709
:104190002DE9F0410A46044610780027097910F00D
:1041A00060030AD0202B01D0402B50D1D4F8B402A8
:1041B00011468368204698478FE0C0F341100128DC
:1041C00006D05078D0B301282AD003283FD107E089
:1041D000D4F8B402114683682046BDE8F041184780
:1041E00094F89C02022802D0032872D10AE071B32D
:1041F00080296ED02046FFF7AFFE80212046FFF7D2
:10420000ABFE6AE0508838B931B1802904D0D0883B
:1042100010B92046FFF7A0FE2046FFF7CEFB5CE07A
:1042200094F89C020228E2D0032852D1508898BB0F
:104230004806F1D02046FFF7F8FCEDE7FFE794F8D9
:104240009C020026022803D0032842D112E040E05D
:1042500009B180293DD1080601F07F0000EB800004
:1042600004EB800101D5143101E001F5AA710222AD
:104270000E602AE0080601F00F0000EB800004EB5E
:1042800080000AD5806920B301F07F0000EB800038
:1042900004EB800514350BE01FE0D0F85801C0B1E5
:1042A00001F07F0000EB800004EB800505F5AA75A6
:1042B00041B1802906D02046FFF7B2FD10B10120A0
:1042C000286000E02E60022229462046FFF768FBA6
:1042D00003E011462046FFF73EFB3846BDE8F0817B
:1042E00070B5054608780C4610F0600003D0202811
:1042F00001D0402816D195F89C02012803D002284D
:1043000001D003280ED1207901280BD8D5F8B402AA
:10431000826828469047E188014306D12846FFF786
:104320004CFB02E02846FFF716FB002070BD7047EB
:10433000004870476C3200202DE9F0470C780026C9
:1043400030F8243048F68F121340CA78002A78D00B
:10435000012A7CD0022A02D0032A75D0012648F215
:104360008002134320F824300D7830F8253048F6C9
:104370008F7423402B43134320F825300D7B48F2E4
:10438000C00948F6BF734CF2800A4BF68F77EDB345
:10439000CD7891F800C0022D30F82C507DD048F631
:1043A0008F6805EA0805154320F82C50B0F85050E6
:1043B00091F800C0054405EB0C15B1F808C02CF0CD
:1043C000010CA5F800C4B0F8505091F800C00544A5
:1043D00005EB0C15B1F80AC02CF0010CA5F808C4C7
:1043E0004D78002D7ED00D7830F825C05FEA4C4C1A
:1043F00007D530F825C00CEA040C4CEA0A0C20F86A
:1044000025C091F800C030F82C5000E022E06D0685
:1044100006D530F82C50254045EA090520F82C50E7
:10442000CC780D78012C30F8254004EA03047CD0C8
:1044300084F02003134320F82530C1E001E006E0BA
:1044400002E043F400738AE743F4C06387E743F470
:10445000806384E74D784DB3B0F850500F78054431
:1044600005EB0715CF8827F00107A5F800740F7832
:1044700030F827506D0606D530F82750254045EA1C
:10448000090520F82750CC78012C07D00C7830F89B
:104490002410194081F0200104E064E00C7830F829
:1044A00024101940114320F8241090E0B0F8503047
:1044B0000D78034403EB0513CD8825F00105A3F81F
:1044C0000854B0F850300D78034403EB0513B3F8EB
:1044D0000C54C5F30905A3F80C540D6903F20C4301
:1044E0003E2D00E045E00BD94FEA551CED0601D109
:1044F000ACF1010C1D884FF4004848EA8C2C0BE00D
:1045000035B34FEA550CED0701D00CF1010C1D88B5
:104510004FF6FF7808EA8C2C45EA0C051D800D78D3
:1045200030F825305B0408D500E046E030F825304F
:10453000234043EA0A0320F82530097861B130F8B6
:1045400021303B4083F40053134320F821303EE0F8
:104550001D8845F40045E1E70188394081F4405168
:104560001143018033E0254048F2801845EA0805F0
:104570001AE791F800C030F82C506D0406D530F8D9
:104580002C50254045EA0A0520F82C5091F800C02F
:1045900030F82C506D0606D530F82C50254045EAF1
:1045A000090520F82C500D7830F825403C4084F463
:1045B0004054144320F8254070E7144320F8254068
:1045C0000B7830F823103940114320F8231030467F
:1045D000BDE8F087002070472DE9F04391F80C808A
:1045E0004F780A7848F6BF7C4BF68F7948F2800303
:1045F00048F2C0054CF2800648F68F74B8F1000FFF
:1046000028D0002F30F822704FEA474748D0002FBB
:1046100005DA30F822702740374320F822700A78F4
:1046200030F822707F0605D530F8227027402F43DE
:1046300020F822700D7830F825202240324320F8EF
:1046400025200C7830F8242002EA0C021A4320F8C6
:1046500024201AE07FB130F82260760605D530F8C4
:10466000226026402E4320F822600A7830F822107B
:1046700001EA0C010EE030F822506D0405D530F847
:1046800022502540354320F822500A7830F8221075
:1046900001EA0901194320F822100020BDE8F08347
:1046A000002F05DA30F822702740374320F82270B7
:1046B0000A7830F82260760605D530F82260264068
:1046C0002E4320F822600E7830F8262022402A431C
:1046D00020F826200C7830F8242002EA09021A4338
:1046E00020F82420C1E700207047002070470121F6
:1046F00020F8401F00210180818001820846704718
:1047000030F8401F21F43F41018000207047002015
:10471000704730B50A7BB2BB4A7848F68F7548F2CD
:104720008004C2B10B7830F82320520607D530F848
:1047300023202A4048F2C0052A4320F82320CA78C3
:10474000012A20D00A7830F8221048F6BF731940A9
:1047500081F0200114E00A7830F822305B0407D59C
:1047600030F822302B404CF280052B4320F82230C9
:104770000A7830F822104BF68F73194081F44051BB
:10478000214320F82210002030BD10B54A78097866
:10479000002A48F2800330F8212005D048F6BF7483
:1047A000224082F0100204E04BF68F74224082F423
:1047B00080521A4320F82120002010BD2DE9F04737
:1047C0000D464B78097B04464FF0000948F68F727E
:1047D00048F2800A4FF400474FF6FF78012B09D0CA
:1047E00000296FD0E87802286DD001286CD0012014
:1047F000BDE8F087AE692869864200D9064691B1C6
:10480000E97802291ED0286A801B2862287834F8AB
:1048100020104906B4F85010214401EB001073D564
:10482000A0F80C6416E1B3B2EA882046696900F08A
:1048300097FAB4F850002978204400EB0110A0F852
:1048400004640DE1296A814277D9297834F821007E
:10485000104048F28012104324F82100286A801B7F
:104860002862287834F820104906697871D511B18A
:1048700001292AD030E0B4F85010214401EB001097
:10488000B0F80C14C1F30901A0F80C1400F20C40AC
:104890003E2E07D97109F20600D1491E028847EA67
:1048A000812107E04EB17108F20700D0491C02884F
:1048B00008EA81210A4302800EE0018841F40041A8
:1048C000018009E0F1E020E195E1B4F850201119F0
:1048D00001EB0010A0F80C646A89B3B22046696944
:1048E00000F03EFA6869304468612969286A8842A4
:1048F00002D9801B286202E00646C5F8209068783D
:1049000018B101282BD032E02FE0B4F850002978FC
:10491000204400EB0110B0F80414C1F30901A0F821
:10492000041400F204403E2E08D97109F20600D1A9
:10493000491E028847EA812108E0A1E056B17108CA
:10494000F20700D0491C028808EA81210A4302804C
:104950000DE00EE0018841F40041018007E0B4F869
:1049600050002978204400EB0110A0F804642A8943
:1049700071E011B1012927D02DE0B4F85010214485
:1049800001EB0010B0F80414C1F30901A0F80414FD
:1049900000F204403E2E07D97109F20600D1491EEB
:1049A000028847EA812107E04EB17108F20700D082
:1049B000491C028808EA81210A4302800BE0018831
:1049C00041F40041018006E0B4F85010214401EBAD
:1049D0000010A0F804642A89B3B22046696900F087
:1049E000BFF96869304468612969286A884202D938
:1049F000801B286202E00646C5F82090687810B156
:104A0000012836D026E0B4F850002978204400EB85
:104A10000110B0F80C14C1F30901A0F80C1400F255
:104A20000C403E2E07D97109F20600D1491E0288BA
:104A300047EA812107E04EB17108F20700D0491C16
:104A4000028808EA81210A43028003E0018841F4D8
:104A5000004101806A89B3B22046696900F080F99B
:104A6000297834F8210048F6BF72104080F03000F9
:104A70000FE1B4F850100819297800EB0110CFE6C7
:104A80002A7834F8220048F68F63184040EA0A007A
:104A900024F82200B4F850002A78204400EB0210D9
:104AA0008BB2A0F804342A89D6E7A9692869814223
:104AB00002D9091AA96102E00846C5F81890B4F8AD
:104AC00050102A78214401EB0211B1F80C24C2F3F2
:104AD0000902A1F80C2401F20C413E287DD94209BB
:104AE000C00600D1521E088847EA82220AE00888E0
:104AF00040F4004007E04208C00700D0521C08887C
:104B000008EA822210430880BBE033BBB4F85000AF
:104B10002978204400EB0110B0F80414C1F3090116
:104B2000A0F80414296900F204403E2907D94B0972
:104B3000C90600D15B1E018847EA832307E041B123
:104B40004B08C90700D05B1C018808EA832319437E
:104B500002E0018841F400410180687810B1012829
:104B600028D030E0B4F850002978204400EB011040
:104B7000B0F80C14C1F30901A0F80C14296900F273
:104B80000C403E2907D94B09C90600D15B1E01889C
:104B900047EA832307E041B14B08C90700D05B1CFB
:104BA000018808EA8323194302E0018841F40041A7
:104BB000018008E0B4F850100819297800EB0110C2
:104BC000298AA0F80C14E869C0B3297834F82100C8
:104BD000430401D5430605D400E046E044F2400317
:104BE00018424ED134F82100104048F2C002104360
:104BF00024F8210045E0A9692869814202D9091AEF
:104C0000A96102E00846C5F8189013BBB4F850102B
:104C10002A78214401EB0211B1F80424C2F30902FD
:104C2000A1F8042401F204413E2808D94209C30630
:104C300000D1521E0B8847EA822208E021E078B1B9
:104C40004208C30700D0521C0B8808EA8222134393
:104C50000B80697800293FF42EAF012909D010E0BC
:104C60000A8842F400420A80F3E700287FF443AF49
:104C70003DE7B4F8502011192A7801EB0211A1F890
:104C80000C04297834F821004BF68F72104080F420
:104C9000405040EA0A0024F821000020A8E5002145
:104CA000A0F844104FF43F41A0F840100020704796
:104CB0000148FCF7DBBB00008C340020B0F8440056
:104CC0007047000010B500EB42005C0800F5806002
:104CD00009D000BF30F8042B01F8012B120A01F8AB
:104CE000012B641EF6D1DA0701D00088087010BDD0
:104CF000142000F072F8FBE730B585B00020029078
:104D00001148816941F00401816180694FF4805448
:104D100000F0040004900120CDE9004002200B4D7A
:104D2000039069462846FBF79FFE0022214628464D
:104D3000FBF792FF6420FBF785FE012221462846FF
:104D4000FBF78AFF05B030BD0010024000080140AB
:104D50000020704711B98021A0F84C100020704746
:104D600010B55B1C00EB42005B0800F5806009D0C9
:104D700011F8012B11F8014B42EA042220F8042B10
:104D80005B1EF5D110BDFEE70907090E002804DB04
:104D900000F1E02080F80014704700F00F0000F1EF
:104DA000E02080F8141D7047FBF76AFFFEF7DEFA7B
:104DB000FDF7BEFDFDF772FDFDF79AFEFDF730FE33
:104DC000FDF70AFEFDF780FD00F00EF8FEE7014654
:104DD0000020842900D0C81C704710B500B90120FC
:104DE00000F016FB002010BD10B500F037FB0020CE
:104DF00010BD7FB50D4604464169B0F9080081B188
:104E0000A16971B1FFF7E3FFD4E905128DE807004E
:104E1000D4E900102B46226900F00DFC039004B089
:104E200070BDFFF7D4FF03A9CDE90001208A2B460E
:104E300082B2D4E9001000F0D1FB012801D000209B
:104E4000EDE70398EBE700002DE9F041184C0F4621
:104E5000054666692068001D00F016FA38B920681A
:104E600090F82C1001208840A1698143A161681C41
:104E700007D137B12168BDE8F0410E48091D00F0A7
:104E800047BA20683544B5424560216805D2A0681C
:104E9000BDE8F041091D00F023BA6068091D00F06B
:104EA0001FFA206B854200D22563BDE8F081000027
:104EB00024000020CC0600202DE9F041054600F03A
:104EC00033FA2E4C2069401C206120682C4F10B111
:104ED000E06940B32DE025602069012829D1002632
:104EE00006EB860007EB800000F0ECF9761C072E3D
:104EF000F6D323488C3000F0E5F92148A03000F0CB
:104F0000E1F91F48B43000F0DDF91D48C83000F069
:104F1000D9F91B48DC3000F0D5F919488C306060B5
:104F20001430A06005E02068E96AC06A884200D8B1
:104F30002560E06A401CE062E96A0120A2698840BD
:104F40001043A06101EB810007EB8000291D00F0F8
:104F5000DFF900F009FAE06900280CD02068E96A5E
:104F6000C06A884207D207494FF080500860BFF3FB
:104F70004F8FBFF36F8FBDE8F08100002400002049
:104F8000F005002004ED00E010B5044690F8510053
:104F900058B101280CD002280FD0502080F311887E
:104FA000BFF34F8FBFF36F8FFEE7206B00F0F0F978
:104FB0002046BDE8104000F0EBB910BD10484FF49A
:104FC0004061420706D0C01D0D4920F00700411A7C
:104FD000C1F540610B4A00230144C2E900030839CE
:104FE000103A21F0070111604B600B600B1AC0E909
:104FF000001393604FF000405360D0607047000092
:10500000E006002070000020144E154CA6F1C807E1
:105010004FF08058DFF84C9012E000BF00F084F9A8
:10502000F068C568281D00F02FF92069401E206136
:10503000E068401EE06000F097F92846FFF7A4FF03
:10504000E0680028EAD138680128F9D9C9F8008059
:10505000BFF34F8FBFF36F8FF2E70000B806002059
:105060002400002004ED00E02DE9F0479A46DDE938
:10507000098481466FF00303206B03EB8202104426
:10508000089D20F00706700707D0502080F3118894
:10509000BFF34F8FBFF36F8FFEE723180A5C83F8CF
:1050A00034200A5C12B1401C1028F6D3002784F883
:1050B0004370072D00D30625E562C4E91157201D72
:1050C00000F00BF904F1180000F007F92461C5F1B4
:1050D00007006462A061E76484F850705246494654
:1050E000304600F0BFF82060B8F1000F01D0C8F8DA
:1050F0000040BDE8F087000030B5114900E01146DE
:105100000A688242FBD34B685C18844203D1406832
:1051100018444860084643681C18944209D1084C5A
:10512000103C2468A24209D052681A4442600A68BE
:1051300012680260814200D0086030BD0460F9E767
:105140007000002006484168096829B14168C968B3
:10515000C9684968016370474FF0FF31FAE7000002
:105160002400002008484068401C4FF0500080F3A5
:10517000118804D0BFF34F8FBFF36F8FFEE7BFF3EB
:105180004F8FBFF36F8FFEE7780000202DE9F041CD
:105190000546002700F098F9314E306808B9FFF74E
:1051A0000DFFF06805424BD1C5B3083568070ED036
:1051B00005F00700C0F108000544680707D050203B
:1051C00080F31188BFF34F8FBFF36F8FFEE72DB3CE
:1051D0007068854234D82248103001460C6801E0DE
:1051E00020460C466168A94202D221680029F7D105
:1051F00031688C4224D007682168016060680837F4
:10520000411B10290FD96019420708D0502080F3A4
:105210001188BFF34F8FBFF36F8FFEE710E041603F
:105220006560FFF769FF61687068401A7060B26876
:10523000904200D2B060F06801430020C4E9000150
:1052400000F088FA780707D0502080F31188BFF368
:105250004F8FBFF36F8FFEE73846BDE8F081000047
:105260006000002010B5031F4FF080741C601B1FEE
:1052700021F001011960191F024B0B6014394038ED
:105280000A6010BD65510008D0E9013201699A60D9
:10529000D0E901235A604A68824201D182684A609B
:1052A000002202610868401E08600868704700001C
:1052B000034B036003F154000860802010607047C6
:1052C0002802002000F108014FF0FF32C0E901126E
:1052D000C1600161002101607047002101617047D8
:1052E00030B50B685A1C02D000F1080202E00269D6
:1052F00004E02246546825689D42FAD953684B6001
:1053000099608A60516008610168491C016030BD84
:1053100042684A6093688B60936859609160086145
:105320000168491C01607047502080F31188BFF369
:105330004F8FBFF36F8F0A494868401C48600128AF
:105340000CD10848006810F0FF0F07D0502080F300
:105350001188BFF34F8FBFF36F8FFEE770470000D8
:105360007800002004ED00E00849486828B1401E9C
:10537000486001D180F311887047502080F3118874
:10538000BFF34F8FBFF36F8FFEE700007800002060
:1053900070B5002827D0144DA0F108046168E868B2
:1053A000014207D1502080F31188BFF34F8FBFF324
:1053B0006F8FFEE722683AB1502080F31188BFF367
:1053C0004F8FBFF36F8FFEE78143616000F07CF881
:1053D00060686968084468602046FFF78DFEBDE894
:1053E000704000F0B7B970BD600000204FF0E020C1
:1053F00000210161816105494FF47A720968B1FBAE
:10540000F2F1491E4161072101617047200000202F
:1054100010B5020014D00F48806B38B1502080F3D3
:105420001188BFF34F8FBFF36F8FFEE700F04CF88A
:1054300000211046FFF708FD00F08CF9002807D185
:1054400005494FF080500860BFF34F8FBFF36F8F57
:1054500010BD00002400002004ED00E010B586B06F
:105460000024039405AA04A903A80494FFF720FFCD
:10547000DDE903010094CDE9011000230EA11048DD
:10548000059A00F0D8F80F490028486311D0502041
:1054900080F31188BFF34F8FBFF36F8F4FF0FF3052
:1054A00008630120C8614C6106B0BDE8104000F0FF
:1054B00041B806B010BD000049444C450000000052
:1054C00009500008240000200248816B491C8163B8
:1054D00070470000240000201448816B11B10121A5
:1054E00041627047002141628169B1FA81F1C1F1E5
:1054F0001F0101EB81020E4951F822306BB101EB23
:10550000820101F108034A6852684A609A4201D157
:1055100052684A60D16801607047502080F311885A
:10552000BFF34F8FBFF36F8FFEE700002400002012
:10553000F00500201CB5264908780190FF2008706E
:1055400008788DF800009DF800009DF8002000F01C
:10555000F000904207D0502080F31188BFF34F8FA6
:10556000BFF36F8FFEE79DF800001A4B00F050006C
:1055700018700720986005E09DF8002052008DF813
:105580000020401E9DF800201206F5D498600328E4
:1055900007D0502080F31188BFF34F8FBFF36F8F78
:1055A000FEE74FF440709860019808700A4801685F
:1055B00041F470010160016841F070410160FFF742
:1055C00015FF00205860FAF715FE00201CBD0000F2
:1055D00000E400E07800002020ED00E02DE9FF5F0E
:1055E0008346DDE90E87994616468A469000FFF706
:1055F000CDFD05001CD05420FFF7C8FD040014D0D9
:105600000020256384F85100CDE90240CDE90087F0
:105610004B46324651465846FFF726FD2046FFF7D7
:105620004BFC012004B0BDE8F09F2846FFF7B0FE18
:105630004FF0FF30F6E7F0B585B0DDE90B640A9D69
:10564000A6B1DCB1542700972663022684F8516086
:10565000002604AFCDE90246CDE90057FFF704FD6F
:105660002046FFF729FC049805B0F0BD502080F3D8
:105670001188BFF34F8FBFF36F8FFEE7502080F389
:105680001188BFF34F8FBFF36F8FFEE72DE9F04115
:105690002E4C0027A06B40B1206A401C2062606A3B
:1056A00000B101273846BDE8F0816669761C666165
:1056B00013D16068006838B1502080F31188BFF3BF
:1056C0004F8FBFF36F8FFEE76068A1686160A060D5
:1056D000A06A401CA062FFF735FD206BDFF87080E8
:1056E000864209D36068006880B16068C068C56898
:1056F000686886420DD220632068C06A00EB800192
:1057000058F821000128CAD90127C8E74FF0FF3017
:10571000F1E7281DFFF7B8FDA86A18B105F11800D8
:10572000FFF7B2FDE86A0121A26981401143A1613E
:1057300000EB800108EB8100291DFFF7E9FDE86A15
:105740002168C96A8842CDD30127CBE72400002015
:10575000F00500202DE9F0472C4D00242746A86BCA
:1057600038B1FFF7E1FDA86B401EA863A86B40B1FC
:1057700046E0502080F31188BFF34F8FBFF36F8F47
:10578000FEE72969224E0120D1B3A6F1B409804673
:105790003068E8B1F068C46804F11800FFF774FDE0
:1057A000201DFFF771FDE06AAA6908FA00F11143B4
:1057B000A96100EB800109EB8100211DFFF7A8FD25
:1057C000E06A2968C96A8842E2D3C5F82480DFE725
:1057D0000CB1FFF7B7FC2C6A44B14646FFF756FF01
:1057E00000B16E62641EF9D100202862686A38B187
:1057F0000849012738070860BFF34F8FBFF36F8F49
:10580000FFF7B2FD3846BDE8F08700002400002015
:10581000A406002004ED00E0285F000835330008EE
:1058200000000000000000008000000000000000F8
:1058300000000000045F00087D280008FEFF000053
:1058400000000000800000000000000000000000D8
:105850001C5F0008F14C0008FDFF00000000000084
:10586000800000000000000000000000105F000841
:105870002D32000800000000000000008000000041
:1058800000000000000000000102020304050607FA
:1058900008090A0B0C0D0E0F10100000000000008C
:1058A00000000102030406070809000000000102CD
:1058B00003040000000000000808080808000008B1
:1058C0000000000000000000363624240000000024
:1058D000000000000000001212247E24247E2448D0
:1058E00048000000000000081C2420180424380888
:1058F00008000000000000002050200C7008140870
:105900000000000000000000000E1010182A241EE5
:105910000000000000000000101010100000000047
:10592000000000000000000004040808080808083F
:1059300004040000000000002020101010101010BF
:105940002020000000000000083E081414000000A1
:105950000000000000000000000808087F08080898
:10596000000000000000000000000000000018100F
:105970003020000000000000000000007E00000059
:1059800000000000000000000000000000001818E7
:10599000000000000000000404080810102020404F
:1059A00040000000000000003C4242424242423CB3
:1059B0000000000000000000083808080808083E41
:1059C0000000000000000000384404081020447C5F
:1059D00000000000000000003844041804044438AB
:1059E00000000000000000000C1424247E04040EBB
:1059F00000000000000000003E20203C0202423C6B
:105A000000000000000000000E10203C2222221C9A
:105A100000000000000000007E42020404080808A4
:105A200000000000000000003C42423C4242423C78
:105A300000000000000000003C4242423E020478A8
:105A400000000000000000000000181800001818F6
:105A500000000000000000000000181800001830CE
:105A6000200000000000000000020C1060100C027A
:105A7000000000000000000000007E007E0000002A
:105A80000000000000000000004030080608304020
:105A900000000000000000001C22020204080018A0
:105AA000000000000000003844444C54544C404472
:105AB000380000000000000018081414141C22779D
:105AC00000000000000000007C22223C2222227CF8
:105AD00000000000000000001E2240404040221C48
